{
  "contractName": "Ownable",
  "abi": [
    {
      "constant": true,
      "inputs": [],
      "name": "owner",
      "outputs": [
        {
          "name": "",
          "type": "address"
        }
      ],
      "payable": false,
      "stateMutability": "view",
      "type": "function"
    },
    {
      "inputs": [],
      "payable": false,
      "stateMutability": "nonpayable",
      "type": "constructor"
    },
    {
      "anonymous": false,
      "inputs": [
        {
          "indexed": true,
          "name": "_currentOwner",
          "type": "address"
        },
        {
          "indexed": true,
          "name": "_newOwner",
          "type": "address"
        }
      ],
      "name": "LogOwnershipTransfered",
      "type": "event"
    }
  ],
  "bytecode": "0x6060604052341561000f57600080fd5b336000806101000a81548173ffffffffffffffffffffffffffffffffffffffff021916908373ffffffffffffffffffffffffffffffffffffffff16021790555060e78061005d6000396000f300606060405260043610603f576000357c0100000000000000000000000000000000000000000000000000000000900463ffffffff1680638da5cb5b146044575b600080fd5b3415604e57600080fd5b60546096565b604051808273ffffffffffffffffffffffffffffffffffffffff1673ffffffffffffffffffffffffffffffffffffffff16815260200191505060405180910390f35b6000809054906101000a900473ffffffffffffffffffffffffffffffffffffffff16815600a165627a7a72305820605dafeb57ceba499a365c3f0119450c43bab541541aaa7cd8b00f45d845492d0029",
  "source": "pragma solidity ^0.4.18;\n\n\ncontract Ownable {\n    address public owner;\n\n    event LogOwnershipTransfered(address indexed _currentOwner, address indexed _newOwner);\n\n    modifier onlyOwner() {\n        require(msg.sender == owner);\n        _;\n    }\n\n    function Ownable() public {\n        owner = msg.sender;\n    }\n\n    // @dev - The ownership shouldn't be transferrable. Otherwise it will mess up the members logic.\n    /* function transferOwnership(address _newOwner) public onlyOwner {\n         owner = _newOwner;\n         LogOwnershipTransfered(msg.sender, _newOwner);\n     } */\n}\n",
  "sourcePath": "/Volumes/Work/kuber/smart-contracts/contracts/common/Ownable.sol",
  "compiler": {
    "name": "solc",
    "version": "0.4.20+commit.3155dd80.Emscripten.clang"
  },
  "schemaVersion": "3.0.23",
  "updatedAt": "2020-03-03T15:23:47.261Z",
  "networkType": "ethereum",
  "devdoc": {
    "methods": {}
  },
  "userdoc": {
    "methods": {}
  }
}